{
  "_format": "hh-sol-artifact-1",
  "contractName": "ImpressionStake",
  "sourceName": "contracts/ImpressionStake.sol",
  "abi": [
    {
      "inputs": [
        {
          "internalType": "address",
          "name": "_owner",
          "type": "address"
        },
        {
          "internalType": "address",
          "name": "_whitelistSignerAddress",
          "type": "address"
        },
        {
          "internalType": "address",
          "name": "_impressionTokenAddress",
          "type": "address"
        }
      ],
      "stateMutability": "nonpayable",
      "type": "constructor"
    },
    {
      "anonymous": false,
      "inputs": [
        {
          "indexed": true,
          "internalType": "uint256",
          "name": "requestId",
          "type": "uint256"
        },
        {
          "indexed": true,
          "internalType": "address",
          "name": "from",
          "type": "address"
        },
        {
          "indexed": true,
          "internalType": "address",
          "name": "to",
          "type": "address"
        },
        {
          "indexed": false,
          "internalType": "uint256",
          "name": "amount",
          "type": "uint256"
        }
      ],
      "name": "MessageRequestCreated",
      "type": "event"
    },
    {
      "anonymous": false,
      "inputs": [
        {
          "indexed": true,
          "internalType": "address",
          "name": "previousOwner",
          "type": "address"
        },
        {
          "indexed": true,
          "internalType": "address",
          "name": "newOwner",
          "type": "address"
        }
      ],
      "name": "OwnershipTransferred",
      "type": "event"
    },
    {
      "inputs": [],
      "name": "charityFund",
      "outputs": [
        {
          "internalType": "address",
          "name": "",
          "type": "address"
        }
      ],
      "stateMutability": "view",
      "type": "function"
    },
    {
      "inputs": [],
      "name": "charityParam",
      "outputs": [
        {
          "internalType": "uint256",
          "name": "",
          "type": "uint256"
        }
      ],
      "stateMutability": "view",
      "type": "function"
    },
    {
      "inputs": [
        {
          "internalType": "uint256",
          "name": "_requestId",
          "type": "uint256"
        },
        {
          "internalType": "bytes",
          "name": "_signature",
          "type": "bytes"
        },
        {
          "internalType": "bytes",
          "name": "_messageHash",
          "type": "bytes"
        }
      ],
      "name": "claimMessage",
      "outputs": [],
      "stateMutability": "nonpayable",
      "type": "function"
    },
    {
      "inputs": [
        {
          "internalType": "uint256",
          "name": "_requestId",
          "type": "uint256"
        }
      ],
      "name": "getMessageRequest",
      "outputs": [
        {
          "components": [
            {
              "internalType": "address",
              "name": "from",
              "type": "address"
            },
            {
              "internalType": "address",
              "name": "to",
              "type": "address"
            },
            {
              "internalType": "uint256",
              "name": "amount",
              "type": "uint256"
            }
          ],
          "internalType": "struct ImpressionStake.MessageRequest",
          "name": "",
          "type": "tuple"
        }
      ],
      "stateMutability": "view",
      "type": "function"
    },
    {
      "inputs": [],
      "name": "impressionTokenAddress",
      "outputs": [
        {
          "internalType": "contract IERC20",
          "name": "",
          "type": "address"
        }
      ],
      "stateMutability": "view",
      "type": "function"
    },
    {
      "inputs": [],
      "name": "owner",
      "outputs": [
        {
          "internalType": "address",
          "name": "",
          "type": "address"
        }
      ],
      "stateMutability": "view",
      "type": "function"
    },
    {
      "inputs": [],
      "name": "renounceOwnership",
      "outputs": [],
      "stateMutability": "nonpayable",
      "type": "function"
    },
    {
      "inputs": [],
      "name": "requestId",
      "outputs": [
        {
          "internalType": "uint256",
          "name": "",
          "type": "uint256"
        }
      ],
      "stateMutability": "view",
      "type": "function"
    },
    {
      "inputs": [
        {
          "internalType": "address",
          "name": "_to",
          "type": "address"
        },
        {
          "internalType": "uint256",
          "name": "_amount",
          "type": "uint256"
        }
      ],
      "name": "requestMessage",
      "outputs": [],
      "stateMutability": "nonpayable",
      "type": "function"
    },
    {
      "inputs": [
        {
          "internalType": "address",
          "name": "_charityFund",
          "type": "address"
        }
      ],
      "name": "setCharity",
      "outputs": [],
      "stateMutability": "nonpayable",
      "type": "function"
    },
    {
      "inputs": [
        {
          "internalType": "uint256",
          "name": "_charityParam",
          "type": "uint256"
        }
      ],
      "name": "setCharityParam",
      "outputs": [],
      "stateMutability": "nonpayable",
      "type": "function"
    },
    {
      "inputs": [
        {
          "internalType": "uint256",
          "name": "_cost",
          "type": "uint256"
        }
      ],
      "name": "setUserCost",
      "outputs": [],
      "stateMutability": "nonpayable",
      "type": "function"
    },
    {
      "inputs": [
        {
          "internalType": "address",
          "name": "signer",
          "type": "address"
        }
      ],
      "name": "setWhitelistSignerAddress",
      "outputs": [],
      "stateMutability": "nonpayable",
      "type": "function"
    },
    {
      "inputs": [
        {
          "internalType": "address",
          "name": "newOwner",
          "type": "address"
        }
      ],
      "name": "transferOwnership",
      "outputs": [],
      "stateMutability": "nonpayable",
      "type": "function"
    },
    {
      "inputs": [
        {
          "internalType": "address",
          "name": "",
          "type": "address"
        }
      ],
      "name": "userCost",
      "outputs": [
        {
          "internalType": "uint256",
          "name": "",
          "type": "uint256"
        }
      ],
      "stateMutability": "view",
      "type": "function"
    }
  ],
  "bytecode": "0x60806040523480156200001157600080fd5b50604051620016013803806200160183398101604081905262000034916200028f565b6200003f3362000084565b600280546001600160a01b0319166001600160a01b0383161790556200006583620000d4565b620000708262000145565b6200007b83620001b2565b505050620002d9565b600080546001600160a01b038381166001600160a01b0319831681178455604051919092169283917f8be0079c531659141344cd1fd0a4f28419497f9722a3daafe3b4186f6b6457e09190a35050565b6000546001600160a01b03163314620001235760405162461bcd60e51b81526020600482018190526024820152600080516020620015e183398151915260448201526064015b60405180910390fd5b600380546001600160a01b0319166001600160a01b0392909216919091179055565b6000546001600160a01b03163314620001905760405162461bcd60e51b81526020600482018190526024820152600080516020620015e183398151915260448201526064016200011a565b600180546001600160a01b0319166001600160a01b0392909216919091179055565b6000546001600160a01b03163314620001fd5760405162461bcd60e51b81526020600482018190526024820152600080516020620015e183398151915260448201526064016200011a565b6001600160a01b038116620002645760405162461bcd60e51b815260206004820152602660248201527f4f776e61626c653a206e6577206f776e657220697320746865207a65726f206160448201526564647265737360d01b60648201526084016200011a565b6200026f8162000084565b50565b80516001600160a01b03811681146200028a57600080fd5b919050565b600080600060608486031215620002a557600080fd5b620002b08462000272565b9250620002c06020850162000272565b9150620002d06040850162000272565b90509250925092565b6112f880620002e96000396000f3fe608060405234801561001057600080fd5b50600436106100f45760003560e01c80638da5cb5b11610097578063c47a03a011610066578063c47a03a014610258578063f2fde38b14610278578063f504764d1461028b578063fb6f71a31461029e57600080fd5b80638da5cb5b1461020e5780639abb86fd1461021f578063b1f2143914610232578063bd7479501461024557600080fd5b80633abc3fe0116100d35780633abc3fe0146101b3578063591f19f5146101c8578063715018a6146101f357806377e1a9fc146101fb57600080fd5b80626d6cae146100f957806305d43f8a146101155780633494fb631461011e575b600080fd5b61010260045481565b6040519081526020015b60405180910390f35b61010260055481565b61018361012c366004610ff4565b60408051606080820183526000808352602080840182905292840181905293845260068252928290208251938401835280546001600160a01b03908116855260018201541691840191909152600201549082015290565b6040805182516001600160a01b03908116825260208085015190911690820152918101519082015260600161010c565b6101c66101c1366004611029565b6102b1565b005b6002546101db906001600160a01b031681565b6040516001600160a01b03909116815260200161010c565b6101c66105e5565b6003546101db906001600160a01b031681565b6000546001600160a01b03166101db565b6101c661022d3660046110f6565b61061b565b6101c6610240366004610ff4565b6109f4565b6101c6610253366004610ff4565b610a60565b610102610266366004611163565b60076020526000908152604090205481565b6101c6610286366004611163565b610b06565b6101c6610299366004611163565b610ba1565b6101c66102ac366004611163565b610bed565b3332146103055760405162461bcd60e51b815260206004820152601d60248201527f496d7072657373696f6e5374616b653a206d7573742075736520454f4100000060448201526064015b60405180910390fd5b6001600160a01b03821661036b5760405162461bcd60e51b815260206004820152602760248201527f496d7072657373696f6e5374616b653a20746f20616464726573732063616e6e60448201526606f7420626520360cc1b60648201526084016102fc565b6001600160a01b0382166000908152600760205260409020546103ea5760405162461bcd60e51b815260206004820152603160248201527f496d7072657373696f6e5374616b653a207573657220636f7374206d75737420604482015270062652067726561746572207468616e203607c1b60648201526084016102fc565b6001600160a01b0382166000908152600760205260409020548110156104785760405162461bcd60e51b815260206004820152603a60248201527f496d7072657373696f6e5374616b653a20616d6f756e74206d7573742062652060448201527f67726561746572207468616e20726563656976657220636f737400000000000060648201526084016102fc565b6040516bffffffffffffffffffffffff19606084901b1660208201526034810182905242605482015260009060740160408051601f198184030181528282528051602091820120606084018352338085526001600160a01b038881168487019081528686018981526000858152600690965294869020965187549083166001600160a01b03199182161788559051600188018054918416919092161790559251600295860155935492516323b872dd60e01b8152600481019490945230602485015260448401869052935016906323b872dd906064016020604051808303816000875af115801561056d573d6000803e3d6000fd5b505050506040513d601f19601f820116820180604052508101906105919190611185565b50826001600160a01b0316336001600160a01b0316827f3127cf92830116f5b2ae6f393af2ba19c7cd2df789641f2c9cc676eed6e53ba1856040516105d891815260200190565b60405180910390a4505050565b6000546001600160a01b0316331461060f5760405162461bcd60e51b81526004016102fc906111a7565b6106196000610c39565b565b33321461066a5760405162461bcd60e51b815260206004820152601d60248201527f496d7072657373696f6e5374616b653a206d7573742075736520454f4100000060448201526064016102fc565b600083815260066020908152604091829020825160608101845281546001600160a01b039081168252600183015416928101839052600290910154928101929092526107105760405162461bcd60e51b815260206004820152602f60248201527f496d7072657373696f6e5374616b653a206d657373616765207265717565737460448201526e08191bd95cc81b9bdd08195e1a5cdd608a1b60648201526084016102fc565b600081604001511161077d5760405162461bcd60e51b815260206004820152603060248201527f496d7072657373696f6e5374616b653a206d657373616765207265717565737460448201526f08185b1c9958591e4818db185a5b595960821b60648201526084016102fc565b600084826020015184604051602001610798939291906111dc565b60405160208183030381529060405280519060200120905060006108138561080d846040517f19457468657265756d205369676e6564204d6573736167653a0a3332000000006020820152603c8101829052600090605c01604051602081830303815290604052805190602001209050919050565b90610c89565b6001549091506001600160a01b0380831691161461087e5760405162461bcd60e51b815260206004820152602260248201527f496d7072657373696f6e5374616b653a20696e76616c6964207369676e617475604482015261726560f01b60648201526084016102fc565b60025460208401516005546001600160a01b039092169163a9059cbb91906064906108a99082611254565b87604001516108b8919061126b565b6108c2919061128a565b6040516001600160e01b031960e085901b1681526001600160a01b03909216600483015260248201526044016020604051808303816000875af115801561090d573d6000803e3d6000fd5b505050506040513d601f19601f820116820180604052508101906109319190611185565b5060025460035460055460408601516001600160a01b039384169363a9059cbb931691606491610961919061126b565b61096b919061128a565b6040516001600160e01b031960e085901b1681526001600160a01b03909216600483015260248201526044016020604051808303816000875af11580156109b6573d6000803e3d6000fd5b505050506040513d601f19601f820116820180604052508101906109da9190611185565b505050600093845250506006602052506040812060020155565b60008111610a4e5760405162461bcd60e51b815260206004820152602160248201527f496d7072657373696f6e5374616b653a20636f73742063616e6e6f74206265206044820152600360fc1b60648201526084016102fc565b33600090815260076020526040902055565b6000546001600160a01b03163314610a8a5760405162461bcd60e51b81526004016102fc906111a7565b6064811115610b015760405162461bcd60e51b815260206004820152603960248201527f496d7072657373696f6e5374616b653a206368617269747920706172616d206360448201527f616e6e6f742062652067726561746572207468616e203130300000000000000060648201526084016102fc565b600555565b6000546001600160a01b03163314610b305760405162461bcd60e51b81526004016102fc906111a7565b6001600160a01b038116610b955760405162461bcd60e51b815260206004820152602660248201527f4f776e61626c653a206e6577206f776e657220697320746865207a65726f206160448201526564647265737360d01b60648201526084016102fc565b610b9e81610c39565b50565b6000546001600160a01b03163314610bcb5760405162461bcd60e51b81526004016102fc906111a7565b600180546001600160a01b0319166001600160a01b0392909216919091179055565b6000546001600160a01b03163314610c175760405162461bcd60e51b81526004016102fc906111a7565b600380546001600160a01b0319166001600160a01b0392909216919091179055565b600080546001600160a01b038381166001600160a01b0319831681178455604051919092169283917f8be0079c531659141344cd1fd0a4f28419497f9722a3daafe3b4186f6b6457e09190a35050565b6000806000610c988585610cad565b91509150610ca581610d1d565b509392505050565b600080825160411415610ce45760208301516040840151606085015160001a610cd887828585610ed8565b94509450505050610d16565b825160401415610d0e5760208301516040840151610d03868383610fc5565b935093505050610d16565b506000905060025b9250929050565b6000816004811115610d3157610d316112ac565b1415610d3a5750565b6001816004811115610d4e57610d4e6112ac565b1415610d9c5760405162461bcd60e51b815260206004820152601860248201527f45434453413a20696e76616c6964207369676e6174757265000000000000000060448201526064016102fc565b6002816004811115610db057610db06112ac565b1415610dfe5760405162461bcd60e51b815260206004820152601f60248201527f45434453413a20696e76616c6964207369676e6174757265206c656e6774680060448201526064016102fc565b6003816004811115610e1257610e126112ac565b1415610e6b5760405162461bcd60e51b815260206004820152602260248201527f45434453413a20696e76616c6964207369676e6174757265202773272076616c604482015261756560f01b60648201526084016102fc565b6004816004811115610e7f57610e7f6112ac565b1415610b9e5760405162461bcd60e51b815260206004820152602260248201527f45434453413a20696e76616c6964207369676e6174757265202776272076616c604482015261756560f01b60648201526084016102fc565b6000807f7fffffffffffffffffffffffffffffff5d576e7357a4501ddfe92f46681b20a0831115610f0f5750600090506003610fbc565b8460ff16601b14158015610f2757508460ff16601c14155b15610f385750600090506004610fbc565b6040805160008082526020820180845289905260ff881692820192909252606081018690526080810185905260019060a0016020604051602081039080840390855afa158015610f8c573d6000803e3d6000fd5b5050604051601f1901519150506001600160a01b038116610fb557600060019250925050610fbc565b9150600090505b94509492505050565b6000806001600160ff1b03831660ff84901c601b01610fe687828885610ed8565b935093505050935093915050565b60006020828403121561100657600080fd5b5035919050565b80356001600160a01b038116811461102457600080fd5b919050565b6000806040838503121561103c57600080fd5b6110458361100d565b946020939093013593505050565b634e487b7160e01b600052604160045260246000fd5b600082601f83011261107a57600080fd5b813567ffffffffffffffff8082111561109557611095611053565b604051601f8301601f19908116603f011681019082821181831017156110bd576110bd611053565b816040528381528660208588010111156110d657600080fd5b836020870160208301376000602085830101528094505050505092915050565b60008060006060848603121561110b57600080fd5b83359250602084013567ffffffffffffffff8082111561112a57600080fd5b61113687838801611069565b9350604086013591508082111561114c57600080fd5b5061115986828701611069565b9150509250925092565b60006020828403121561117557600080fd5b61117e8261100d565b9392505050565b60006020828403121561119757600080fd5b8151801515811461117e57600080fd5b6020808252818101527f4f776e61626c653a2063616c6c6572206973206e6f7420746865206f776e6572604082015260600190565b838152600060206bffffffffffffffffffffffff198560601b1681840152835160005b8181101561121b578581018301518582016034015282016111ff565b8181111561122d576000603483870101525b509290920160340195945050505050565b634e487b7160e01b600052601160045260246000fd5b6000828210156112665761126661123e565b500390565b60008160001904831182151516156112855761128561123e565b500290565b6000826112a757634e487b7160e01b600052601260045260246000fd5b500490565b634e487b7160e01b600052602160045260246000fdfea26469706673582212202099a760c876bdb3371a4e962ce8e55acaa23ac96f28f87275606b186403672b64736f6c634300080b00334f776e61626c653a2063616c6c6572206973206e6f7420746865206f776e6572",
  "linkReferences": {},
  "deployedLinkReferences": {}
}